:020000040800F2
:1000000000280020A9020008F9020008F9020008EF
:10001000F9020008F9020008F902000800000000D7
:10002000000000000000000000000000F9020008CD
:10003000F902000800000000F9020008F9020008B7
:10004000F9020008F9020008F9020008F9020008A4
:10005000F9020008F9020008F9020008F902000894
:10006000F9020008F9020008F9020008F902000884
:10007000F9020008F9020008F9020008F902000874
:10008000F9020008F9020008F9020008F902000864
:10009000F9020008F9020008F9020008F902000854
:1000A000F9020008F9020008F9020008F902000844
:1000B000F9020008F9020008F9020008F902000834
:1000C000F9020008F9020008F9020008F902000824
:1000D000F9020008F9020008F9020008F902000814
:1000E000F9020008F902000800000000F902000807
:1000F000F9020008F9020008F9020008F9020008F4
:10010000F9020008F9020008F9020008F9020008E3
:10011000F9020008F9020008F9020008F9020008D3
:10012000F9020008F9020008F9020008F9020008C3
:1001300010B5054C237833B9044B13B10448AFF321
:1001400000800123237010BD00000020000000008B
:100150004403000808B5034B1BB103490348AFF340
:10016000008008BD000000000400002044030008D7
:1001700080B400AF074B1B68064A43F004031360CA
:10018000044B1B68034A43F00803136000BFBD46DD
:1001900080BC70471810024080B400AF124B0022A0
:1001A0001A60124B00221A60114B00221A600E4B8B
:1001B0001B680D4A43F0400313600E4B1B680D4A49
:1001C00043F010031360094B1B68084A43F4800393
:1001D0001360094B1B68084A43F48013136000BF87
:1001E000BD4680BC704700BF0008014004080140C4
:1001F0000C080140000C0140040C014080B485B0A3
:1002000000AF78600023FB600BE00023BB6002E0DE
:10021000BB680133BB60BB68FE2BF9D9FB680133B7
:10022000FB60FA687B689A42EFD300BF1437BD4683
:1002300080BC704780B500AFFFF79AFFFFF7ACFFB7
:10024000174B1B68164A43F002031360144B1B68DC
:10025000134A43F400531360124B1B6803F002036C
:10026000002B0CD10E4B1B680D4A83F00203136068
:1002700000BF0C4B1B6803F00203002BF9D0094BA5
:100280001B685B0B03F00103012BE5D1044B1B68DA
:10029000034A83F4005313602820FFF7AFFFDBE726
:1002A0000C0C0140080801400D488546AFF3008062
:1002B0000C480D490D4A002302E0D458C4500433C1
:1002C000C4188C42F9D30A4A0A4C002301E0136097
:1002D0000432A242FBD300F011F8FFF7ABFFFEE7B8
:1002E0000028002000000020000000206403000817
:1002F000000000201C000020FEE7000070B5002573
:100300000C4E0D4CA41BA410A54209D100F01AF804
:1003100000250A4E0A4CA41BA410A54205D170BDAD
:1003200056F8253098470135EEE756F825309847BE
:100330000135F2E75C0300085C0300085C03000879
:1003400060030008F8B500BFF8BC08BC9E467047C3
:0C035000F8B500BFF8BC08BC9E46704722
:04035C00550100083F
:04036000310100085F
:04000005080002A944
:00000001FF
