:100000000C942A000C9434000C9434000C943400AA
:100010000C9434000C9434000C9434000C94340090
:100020000C9434000C9434000C9434000C94340080
:100030000C9434000C9434000C9434000C94340070
:100040000C9434000C9434000C9434000C94340060
:100050000C94340011241FBECFE5D8E0DEBFCDBF25
:100060000E9436000C945D000C94000080ED90E03E
:100070000E945100C0E0D0E081E090E00E94530077
:100080008BBB8E010F5F1F4FCE010E944900E8011C
:10009000F3CF83B986B7846886BF06B607FEFDCF67
:1000A000089582B9089520E4829FC00111248468D4
:0E00B00086BF06B607FEFDCF0895F894FFCF79
:00000001FF
