S01000004144435F4C6162322E73726563AC
S11300000C942A000C9434000C9434000C943400A6
S11300100C9434000C9434000C9434000C9434008C
S11300200C9434000C9434000C9434000C9434007C
S11300300C9434000C9434000C9434000C9434006C
S11300400C9436000C9434000C9434000C9434005A
S11300500C94340011241FBECFE5D8E0DEBFCDBF21
S11300600E944D000C945A000C9400001F920F92B1
S11300700FB60F9211248F939F9384B195B182BBD5
S113008084B195B195BB86B1806486B99F918F91F7
S11300900F900FBE0F901F9018958FEF84BB81BBFC
S11300A01ABA789480EC87B98FE886B986B18064EF
S10B00B086B9FFCFF894FFCFDD
S9030000FC
