S01400004750494F5F41746D656733322E737265632F
S11300000C942A000C9434000C9434000C943400A6
S11300100C9434000C9434000C9434000C9434008C
S11300200C9434000C9434000C9434000C9434007C
S11300300C9434000C9434000C9434000C9434006C
S11300400C9434000C9434000C9434000C9434005C
S11300500C94340011241FBECFE5D8E0DEBFCDBF21
S11300600E9436000C944A000C9400008AB38F60FE
S11300708ABB9BB381E089278BBB9BB382E0892732
S11300808BBB9BB384E089278BBB9BB388E0892718
S10B00908BBBEFCFF894FFCF06
S9030000FC
