S0160000536C6176652052656365697665722E73726563BE
S11300000C942A000C9434000C9434000C943400A6
S11300100C9434000C9434000C9434000C9434008C
S11300200C9434000C9434000C9434000C9434007C
S11300300C9434000C9434000C9434000C9434006C
S11300400C9434000C9434000C9434000C9434005C
S11300500C94340011241FBECFE5D8E0DEBFCDBF21
S11300600E9436000C945F000C9400008FEF8ABB52
S113007080ED90E00E94420081E090E00E94440004
S11300808BBBFACF82B9089520E4829FC00111246A
S1130090846886BF96B796BF06B607FEFDCF91B1BA
S11300A0987F9036E1F786BF86B786BF06B607FE0F
S11300B0FDCF81B1887F8038E1F783B10895F8944A
S10500C0FFCF6C
S9030000FC
