:100000000C942A000C949A000C94BB000C94DC0015
:100010000C9434000C9434000C9434000C94340090
:100020000C9434000C9434000C9434000C94340080
:100030000C9434000C9434000C9434000C94340070
:100040000C9434000C9434000C9434000C94340060
:100050000C94340011241FBECFE5D8E0DEBFCDBF25
:100060000E945A000C94FD000C94000087B398B3D2
:100070008B7F98BB87BB089581B392B38B7F92BB74
:1000800081BB089581B392B3877F92BB81BB0895F2
:1000900081B392B3806292BB81BB089581B392B366
:1000A000806492BB81BB089581B392B3806892BB98
:1000B00081BB08958BB79CB780649CBF8BBF8BB707
:1000C0009CB780689CBF8BBF8BB79CB780629CBF7E
:1000D0008BBF85B796B7816096BF85BF85B796B74A
:1000E000846096BF85BF85B796B7886096BF85BF89
:1000F00084B795B78F7B95BF84BF0E9436000E945E
:100100003C000E9442000E9448000E944E000E9453
:100110005400789482B393B38F7D93BB82BB82B338
:1001200093B38F7B93BB82BB82B393B38F7793BB25
:1001300082BBF0CF1F920F920FB60F9211242F9314
:100140008F939F9382B393B3806293BB82BB2FEF55
:1001500089E698E1215080409040E1F700C000001E
:100160008AB780648ABF9F918F912F910F900FBEA5
:100170000F901F9018951F920F920FB60F92112497
:100180002F938F939F9382B393B3806493BB82BB6F
:100190002FEF89E698E1215080409040E1F700C0C0
:1001A00000008AB780688ABF9F918F912F910F902E
:1001B0000FBE0F901F9018951F920F920FB60F92BF
:1001C00011242F938F939F9382B393B3806893BB33
:1001D00082BB2FEF89E698E1215080409040E1F703
:1001E00000C000008AB780628ABF9F918F912F91D3
:0E01F0000F900FBE0F901F901895F894FFCF40
:00000001FF
