:100000000C942A000C9434000C9434000C943400AA
:100010000C9434000C9434000C9434000C94340090
:100020000C9434000C9434000C9434000C94340080
:100030000C9434000C9434000C9434000C94340070
:100040000C9434000C9434000C9434000C94340060
:100050000C94340011241FBECFE5D8E0DEBFCDBF25
:100060000E9436000C94F0000C9400008FEF8ABBC5
:100070008BB381608BBB2FE78FE492E121508040EE
:100080009040E1F700C000008BB382608BBB2FE78C
:100090008FE492E1215080409040E1F700C00000E1
:1000A0008BB384608BBB2FE78FE492E121508040BB
:1000B0009040E1F700C000008BB388608BBB2FE756
:1000C0008FE492E1215080409040E1F700C00000B1
:1000D0008BB380618BBB2FE78FE492E1215080408E
:1000E0009040E1F700C000008BB380628BBB2FE72C
:1000F0008FE492E1215080409040E1F700C0000081
:100100008BB380648BBB2FE78FE492E1215080405A
:100110009040E1F700C000008BB380688BBB2FE7F5
:100120008FE492E1215080409040E1F700C0000050
:100130008BB38F778BBB2FE78FE492E12150804008
:100140009040E1F700C000008BB38F7B8BBB2FE7A3
:100150008FE492E1215080409040E1F700C0000020
:100160008BB38F7D8BBB2FE78FE492E121508040D2
:100170009040E1F700C000008BB38F7E8BBB2FE770
:100180008FE492E1215080409040E1F700C00000F0
:100190008BB3877F8BBB2FE78FE492E121508040A8
:1001A0009040E1F700C000008BB38B7F8BBB2FE743
:1001B0008FE492E1215080409040E1F700C00000C0
:1001C0008BB38D7F8BBB2FE78FE492E12150804072
:1001D0009040E1F700C000008BB38E7F8BBB48CF0F
:0401E000F894FFCFC1
:00000001FF
