S01A00004D6173746572205472616E736D69747465722E73726563E1
S11300000C942A000C9434000C9434000C943400A6
S11300100C9434000C9434000C9434000C9434008C
S11300200C9434000C9434000C9434000C9434007C
S11300300C9434000C9434000C9434000C9434006C
S11300400C9434000C9434000C9434000C9434005C
S11300500C94340011241FBECFE5D8E0DEBFCDBF21
S11300600E9436000C94A9000C9400008FEF8ABB08
S113007068E470E080E090E00E9454002FEB87E297
S113008099E0215080409040E1F700C000000E94B8
S1130090680081ED0E94720080E00E947C00C82FFD
S11300A00E947900CBBBEACF9B01AC0160E074E213
S11300B084EF90E00E948700DA01C9014097A1090A
S11300C0B109B695A7959795879580B911B8089504
S11300D086B7846A86BF06B607FEFDCF81B1883035
S11300E0E9F7089583B984E886BF06B607FEFDCF15
S11300F0089584E986BF089520E4829FC0011124F5
S1130100846886BF06B607FEFDCF83B10895A1E2D9
S11301101A2EAA1BBB1BFD010DC0AA1FBB1FEE1F7D
S1130120FF1FA217B307E407F50720F0A21BB30BC8
S1130130E40BF50B661F771F881F991F1A9469F744
S113014060957095809590959B01AC01BD01CF01A0
S10901500895F894FFCFAE
S9030000FC
