:100000000C942A000C9434000C9434000C943400AA
:100010000C9434000C9434000C9434000C94340090
:100020000C9434000C9434000C9434000C94340080
:100030000C9434000C9434000C9434000C94340070
:100040000C9434000C9434000C9434000C94340060
:100050000C94340011241FBECFE5D8E0DEBFCDBF25
:100060000E9436000C94B2000C94000068E470E02A
:1000700080E090E00E945E00C0E0D0E02FE181EAE5
:1000800097E0215080409040E1F700C000000E94BE
:10009000780080ED0E94820081B1887F8831E1F78D
:1000A0008E010F5F1F4F8C2F0E94820081B1887FCD
:1000B0008832E1F70E948D00E801E0CF9B01AC019E
:1000C00081B1816081B960E072E18AE790E00E94CD
:1000D0009000DA01C9014097A109B109689412F8AA
:1000E000B695A795979587951694D1F780B90895F9
:1000F00084EA86BF06B607FEFDCF81B1887F8830CF
:10010000E1F7089583B984E886BF06B607FEFDCF00
:1001100086B7887F8038E1F7089584E986BF08951F
:10012000A1E21A2EAA1BBB1BFD010DC0AA1FBB1FFB
:10013000EE1FFF1FA217B307E407F50720F0A21B6D
:10014000B30BE40BF50B661F771F881F991F1A94DA
:1001500069F760957095809590959B01AC01BD0104
:08016000CF010895F894FFCFD0
:00000001FF
