:100000000C942A000C9447000C9447000C94470071
:100010000C9447000C9447000C9447000C94470044
:100020000C9447000C9447000C9447000C94470034
:100030000C9447000C946B010C9447000C94310114
:100040000C9447000C9447000C9447000C94470014
:100050000C94470011241FBECFE5D8E0DEBFCDBF12
:1000600010E0A0E6B0E0E0E5F3E002C005900D92FC
:10007000A237B107D9F720E0A2E7B0E001C01D9296
:10008000A737B207E1F70E94E7000C94A6010C9491
:10009000000088B38B7F88BB83ED90E30197F1F775
:1000A00000C0000088B3846088BB08958AB31ABA80
:1000B00088B3826088BB88B38E7F88BB0E9449006A
:1000C0008FEF8ABB88B38D7F88BB0895CF93C82FED
:1000D0000E945600CBBB88B38C7F88BB0E9449002E
:1000E000CF91089581E00E9466000895CF93C82FB4
:1000F0000E94560088B3816088BBCBBB88B3816007
:1001000088BB88B38D7F88BB0E944900CF9108953A
:1001100087E893E10197F1F700C0000087B387609B
:1001200087BB88B3887F88BB8FEF8ABB85EA9EE058
:100130000197F1F700C000000E94720088E30E945E
:10014000660086E00E94660080E80E9466008FE0FC
:100150000E9466000895811107C0603168F480E84C
:10016000860F0E9466000895813031F4603120F4DA
:1001700080EC860F0E94660008950F931F93CF9323
:10018000DF938C01C0E0D0E019C021960F5F1F4FB4
:100190000E947600C031D10529F460E081E00E9420
:1001A000AB000CC0CE018097029740F40E94720011
:1001B00060E080E00E94AB00C0E0D0E0F801808108
:1001C0008111E3CFDF91CF911F910F910895789422
:1001D0000E9488000E94030160E080E00E94AB0062
:1001E00083E690E00E94BD008BE690E00E941B0138
:1001F00060E081E00E94AB000E940F0180937200DA
:100200000E947600F5CF83E389B98BB18D7F8BB9DE
:100210008AB188608AB98AB180618AB908955F9B82
:10022000FECF8CB108958CB908958CB108958AB130
:1002300080648AB90895CF93DF939C019091620006
:10024000913061F4E9010E94170188810E94130135
:10025000D0937600C093750010926200DF91CF9129
:1002600008951F920F920FB60F9211242F933F9370
:100270004F935F936F937F938F939F93AF93BF93AE
:10028000EF93FF9380916000E0917500F09176000C
:10029000E80FF11D8081882341F00E9413018091B5
:1002A00060008F5F8093600005C081E080936000F4
:1002B00080936200FF91EF91BF91AF919F918F91D9
:1002C0007F916F915F914F913F912F910F900FBE52
:1002D0000F901F9018951F920F920FB60F92112436
:1002E0002F933F934F935F936F937F938F939F933E
:1002F000AF93BF93CF93DF93EF93FF93C0917300BE
:10030000D09174008881882351F0CE01019690939A
:100310007400809373000E941501898304C01882C1
:1003200081E080936100FF91EF91DF91CF91BF91C8
:10033000AF919F918F917F916F915F914F913F917D
:100340002F910F900FBE0F901F901895F894FFCF2C
:100350000101015541525420545200416E73616DA8
:0203600000009B
:00000001FF
