S01E00004C61622031205465737420736572766F206D6F746F722E7372656346
S11300000C942A000C9434000C9434000C943400A6
S11300100C9434000C9434000C9434000C9434008C
S11300200C9434000C9434000C9434000C9434007C
S11300300C9434000C9434000C9434000C9434006C
S11300400C9434000C9434000C9434000C9434005C
S11300500C94340011241FBECFE5D8E0DEBFCDBF21
S11300600E9436000C9479000C94000081E084BB5B
S113007015BA85B3816085BB8FEC97E00197F1F7E2
S113008000C0000085B38E7F85BB9FEF23ED80E326
S1130090915020408040E1F700C0000085B38160AA
S11300A085BB87EB9BE00197F1F700C0000085B3A7
S11300B08E7F85BB9FEF23ED80E3915020408040ED
S11300C0E1F700C0000085B3816085BB87E690E15D
S11300D00197F1F700C0000085B38E7F85BB9FEFC9
S11300E023ED80E3915020408040E1F700C0000000
S10900F0C0CFF894FFCF1D
S9030000FC
