:100000000C942A000C9434000C9434000C943400AA
:100010000C9434000C9434000C9434000C94340090
:100020000C9434000C9434000C9434000C94340080
:100030000C9434000C9434000C9434000C94340070
:100040000C9434000C9434000C9434000C94340060
:100050000C94340011241FBECFE5D8E0DEBFCDBF25
:100060000E9447000C9459000C94000087B38064F0
:1000700087BB87B387BB8DB180648DB98DB18F7E0F
:100080008DB908958FB9779BFECF8FB10895CF9327
:100090008FEF8ABB0E943600CFEF05C08C2F0E94E5
:1000A00042008BBBC150C111F9CF80E090E0CF91ED
:0600B0000895F894FFCF53
:00000001FF
