:020000040800F2
:1000000000280020D1090008210A0008210A000860
:10001000210A0008210A0008210A00080000000047
:10002000000000000000000000000000210A00089D
:10003000210A000800000000210A0008210A000827
:10004000210A0008210A0008210A0008210A0008E4
:10005000210A0008210A0008710100088D0100082A
:10006000A9010008C5010008E1010008210A0008F3
:10007000210A0008210A0008210A0008210A0008B4
:10008000210A0008210A0008210A0008210A0008A4
:10009000210A0008210A0008210A0008FD010008C1
:1000A000210A0008210A0008210A0008210A000884
:1000B000210A0008210A0008210A0008210A000874
:1000C000210A0008210A0008210A0008210A000864
:1000D000210A0008E5080008F90800080D090008D1
:1000E000210A0008210A000800000000210A000877
:1000F000210A0008210A0008210A0008210A000834
:10010000210A0008210A0008210A0008210A000823
:10011000210A0008210A0008210A0008210A000813
:10012000210A0008210A0008210A0008210A000803
:1001300010B5054C237833B9044B13B10448AFF321
:1001400000800123237010BD00000020000000008B
:100150006C0A000808B5034B1BB103490348AFF311
:10016000008008BD00000000040000206C0A0008A8
:1001700080B500AF034B01225A61034B1B689847BF
:1001800000BF80BD000401402800002080B500AF02
:10019000034B02225A61034B5B68984700BF80BD46
:1001A000000401402800002080B500AF034B04226A
:1001B0005A61034B9B68984700BF80BD0004014013
:1001C0002800002080B500AF034B08225A61034B82
:1001D000DB68984700BF80BD000401402800002074
:1001E00080B500AF034B10225A61034B1B6998473F
:1001F00000BF80BD000401402800002080B500AF92
:10020000264B5B6903F02003002B08D0234B5B696E
:10021000224A43F020035361214B5B6998471F4BEF
:100220005B6903F04003002B08D01C4B5B691B4A41
:1002300043F0400353611A4B9B699847174B5B6926
:1002400003F08003002B08D0144B5B69134A43F082
:1002500080035361124BDB699847104B5B6903F4D1
:100260008073002B08D00D4B5B690C4A43F48073FC
:1002700053610B4B1B6A9847084B5B6903F400738F
:10028000002B08D0054B5B69044A43F400735361AB
:10029000034B5B6A984700BF80BD00BF000401406C
:1002A0002800002080B483B000AF0346FB80FB88A9
:1002B000802B42D0802B11DC082B36D0082B06DC9B
:1002C000022B2ED0042B2ED0012B28D047E0202B40
:1002D0002FD0402B2FD0102B29D040E0B3F5006F4A
:1002E00033D0B3F5006F09DCB3F5007F29D0B3F547
:1002F000806F28D0B3F5807F21D030E0B3F5005F68
:1003000027D0B3F5005F03DCB3F5805F1FD026E094
:10031000B3F5804F1FD0B3F5004F1ED01FE0002370
:100320001EE004231CE008231AE00C2318E010232D
:1003300016E0142314E0182312E01C2310E000231D
:100340000EE004230CE008230AE00C2308E010234D
:1003500006E0142304E0182302E01C2300E000233D
:1003600018460C37BD4680BC704790B585B000AFCD
:10037000786039600023BB600023FB733B681B88F7
:10038000FF2B01D87B6801E07B680433BB603B68CE
:100390001B881846FFF786FF03461A460F23934033
:1003A000DA43BB681B681A40BB681A603B689B78DD
:1003B000052B0BD03B689B78042B07D03B689B78C0
:1003C000062B03D03B689B78072B0ED13B689B78AC
:1003D000043B9B005AB23B68DB785BB213435BB2D1
:1003E000DBB203F00F03FB732CE03B689B78012B1F
:1003F00003D03B689B78002B07D13B689B789B0020
:10040000DBB203F00F03FB731CE03B689B78082B07
:1004100002D10423FB7315E00823FB733B689B7830
:10042000022B07D17B68DB683A6812881A437B6825
:10043000DA6007E07B68DB683A681288D2431A40CA
:100440007B68DA60FC7B3B681B881846FFF72AFF55
:10045000034604FA03F2BB681B681A43BB681A60C0
:1004600000BF1437BD4690BD80B400AF0A4B5B6837
:100470009B0803F00303012B06D0012B02D3022BB0
:1004800004D005E0054B03E0054B01E0044BFFE71A
:100490001846BD4680BC70470010024000127A002A
:1004A0000024F40080B500AFFFF7DEFF0146064BE5
:1004B0005B681B0903F00F03044A32F8133021FA7A
:1004C00003F3184680BD00BF001002408C0A0008EC
:1004D00080B500AFFFF7E6FF0146054B5B681B0ADE
:1004E00003F00703034AD35C21FA03F3184680BDE7
:1004F00000100240840A000880B500AFFFF7D2FF69
:100500000146054B5B68DB0A03F00703034AD35C33
:1005100021FA03F3184680BD00100240840A000847
:1005200080B584B000AF786039607B68594A9342E7
:1005300009D1594B9B69584A43F480439361574A08
:100540003B6813601AE07B68554A934209D1524BCD
:10055000DB69514A43F40033D361504A3B6853602E
:100560000CE07B684F4A934208D14B4BDB694A4A07
:1005700043F48023D361494A3B6893607B68DB681E
:1005800043F400527B68DA607B68DB683A68127873
:100590001A437B68DA607B68DB683A68127A1A4330
:1005A0007B68DA607B68DB683A68527A1A437B685A
:1005B000DA607B681B693A68927A1A437B681A6131
:1005C0007B685B693A68D27A1A437B685A617B68B8
:1005D000304A934203D1FFF78FFFF86002E0FFF744
:1005E00077FFF8603B685B681B01FA68B2FBF3F3C6
:1005F0001901FA6813469B0013449A001A443B6899
:100600005B689B00B2FBF3F23B685B681B01F86818
:10061000B0FBF3F3642000FB03F3D31A1B01224A5F
:10062000A2FB03235B0903F00F030B43BB607B6852
:10063000BA689A603B681B7B002B26D07B68DB681E
:100640003A68127B1A437B68DA607B68114A9342EE
:1006500006D1164B1B68154A43F02003136014E0C3
:100660007B680F4A934206D1104B1B680F4A43F038
:100670004003136009E07B680A4A934205D10B4BA3
:100680001B680A4A43F08003136000BF1037BD4661
:1006900080BD00BF00380140001002401C00002057
:1006A00000440040004800401F85EB5104E100E099
:1006B00080B485B000AFF860B9601346FB71FB7978
:1006C000002B06D100BFFB681B6803F08003002BE2
:1006D000F9D0FB68174A93420AD1174B1B681B7A63
:1006E000002B22D1BB681B88DAB2FB685A601CE081
:1006F000FB68124A93420AD10F4B5B681B7A002BAE
:1007000013D1BB681B88DAB2FB685A600DE0FB6846
:100710000B4A934209D1084B9B681B7A002B04D1EA
:10072000BB681B88DAB2FB685A6000BF1437BD464D
:1007300080BC7047003801401C000020004400408D
:100740000048004080B485B000AFF860B96013463F
:10075000FB71FB79002B06D100BFFB681B6803F01F
:100760002003002BF9D0FB68284A934215D1284B6F
:100770001B685B7A002B07D1FB685B689BB2DBB21E
:100780009AB2BB681A803BE0FB685B689BB203F0DF
:100790007F039AB2BB681A8032E0FB681D4A93421D
:1007A00015D11B4B5B685B7A002B07D1FB685B683C
:1007B0009BB2DBB29AB2BB681A8021E0FB685B682F
:1007C0009BB203F07F039AB2BB681A8018E0FB6803
:1007D000104A934214D10E4B9B685B7A002B07D1D1
:1007E000FB685B689BB2DBB29AB2BB681A8007E019
:1007F000FB685B689BB203F07F039AB2BB681A8008
:1008000000BF1437BD4680BC704700BF00380140B0
:100810001C0000200044004080B584B000AF786028
:100820007B682B4A934218D14FF40073BB81062397
:10083000BB730123FB7307F10C0319462548FFF72F
:1008400094FD4FF48063BB810823BB7307F10C0355
:1008500019462048FFF789FD36E07B681E4A93421F
:1008600016D10423BB810623BB730123FB7307F15D
:100870000C0319461748FFF778FD0823BB810823AE
:10088000BB7307F10C0319461248FFF76EFD1BE01E
:100890007B68124A934217D14FF48063BB810623D1
:1008A000BB730123FB7307F10C0319460C48FFF7D8
:1008B0005CFD4FF40063BB810823BB7307F10C039D
:1008C00019460748FFF751FD00BF1037BD4680BDF0
:1008D000003801400008014000440040004800404A
:1008E000000C014080B500AF024B1B681B699847A4
:1008F00000BF80BD1C00002080B500AF024B5B68CC
:100900001B69984700BF80BD1C00002080B500AF68
:10091000024B9B681B69984700BF80BD1C000020EC
:1009200080B400AF0A4B9B69094A43F0040393610A
:10093000074B9B69064A43F008039361044B9B698C
:10094000034A43F00103936100BFBD4680BC70477A
:100950000010024080B500AF012205490548FFF7AD
:10096000F1FE002202490348FFF7A2FE00BF80BD4E
:10097000640000200038014080B586B000AF4FF41D
:10098000E133BB600023FB7320233B740A4B7B6184
:1009900000237B7300233B730023BB730C233B7149
:1009A0003B1D19460548FFF7BBFD0448FFF734FF20
:1009B00000BF1837BD4680BD55090008003801400A
:1009C00080B500AFFFF7ACFFFFF7D6FFFEE70000F2
:1009D0000D488546AFF300800C480D490D4A0023B1
:1009E00002E0D458C4500433C4188C42F9D30A4AE4
:1009F0000A4C002301E013600432A242FBD300F052
:100A000011F8FFF7DDFFFEE70028002000000020BE
:100A100000000020B40A0008000000206800002048
:100A2000FEE7000070B500250C4E0D4CA41BA41071
:100A3000A54209D100F01AF800250A4E0A4CA41B61
:100A4000A410A54205D170BD56F825309847013550
:100A5000EEE756F8253098470135F2E7AC0A000872
:100A6000AC0A0008AC0A0008B00A0008F8B500BFDC
:100A7000F8BC08BC9E467047F8B500BFF8BC08BC7F
:040A80009E467047D7
:100A84000000000001020304000000000000000058
:100A94000000000000000000010002000300040048
:080AA40006000700080009002C
:040AAC0055010008E8
:040AB0003101000808
:04000005080009D115
:00000001FF
