S00B00005744542E737265632A
S11300000C942A000C9434000C9434000C943400A6
S11300100C9434000C9434000C9434000C9434008C
S11300200C9434000C9434000C9434000C9434007C
S11300300C9434000C9434000C9434000C9434006C
S11300400C9434000C9434000C9434000C9434005C
S11300500C94340011241FBECFE5D8E0DEBFCDBF21
S11300600E9445000C945A000C94000081B58861EC
S113007081BD11BC089581B5886081BD81B58E7F35
S113008081BD81B5866081BD089584B3816084BBE0
S11300900E943B0095B381E0892785BB2FEF86EE54
S11300A098E1215080409040E1F700C000000E9498
S10B00B03600EECFF894FFCFF7
S9030000FC
