:100000000C942A000C9434000C9434000C943400AA
:100010000C9434000C9434000C9434000C94340090
:100020000C9434000C9434000C9434000C94340080
:100030000C9434000C9434000C9434000C94340070
:100040000C9436000C9434000C9434000C9434005E
:100050000C94340011241FBECFE5D8E0DEBFCDBF25
:100060000E9447000C9453000C9400001F920F92C2
:100070000FB60F9211248F9385B182BB86B1806435
:1000800086B98F910F900FBE0F901F9018958FEF2C
:1000900081BB1ABA789480EE87B98FE886B986B1A9
:0A00A000806486B9FFCFF894FFCF0B
:00000001FF
